{"abi":[{"type":"function","name":"relaySequenceEntry","inputs":[{"name":"_target","type":"address","internalType":"address"},{"name":"_prevMsgHash","type":"bytes32","internalType":"bytes32"},{"name":"_message","type":"bytes","internalType":"bytes"}],"outputs":[],"stateMutability":"nonpayable"},{"type":"function","name":"sendSequenceEntry","inputs":[{"name":"_chainId","type":"uint256","internalType":"uint256"},{"name":"_target","type":"address","internalType":"address"},{"name":"_prevMsgHash","type":"bytes32","internalType":"bytes32"},{"name":"_message","type":"bytes","internalType":"bytes"}],"outputs":[{"name":"msgHash_","type":"bytes32","internalType":"bytes32"}],"stateMutability":"nonpayable"},{"type":"event","name":"FailedRelayedSequenceEntry","inputs":[{"name":"source","type":"uint256","indexed":true,"internalType":"uint256"},{"name":"prevMsgHash","type":"bytes32","indexed":true,"internalType":"bytes32"},{"name":"message","type":"bytes","indexed":false,"internalType":"bytes"}],"anonymous":false},{"type":"event","name":"RelayedSequenceEntry","inputs":[{"name":"source","type":"uint256","indexed":true,"internalType":"uint256"},{"name":"prevMsgHash","type":"bytes32","indexed":true,"internalType":"bytes32"},{"name":"message","type":"bytes","indexed":false,"internalType":"bytes"}],"anonymous":false},{"type":"event","name":"SentSequenceEntry","inputs":[{"name":"destination","type":"uint256","indexed":true,"internalType":"uint256"},{"name":"target","type":"address","indexed":true,"internalType":"address"},{"name":"prevMsgHash","type":"bytes32","indexed":true,"internalType":"bytes32"},{"name":"message","type":"bytes","indexed":false,"internalType":"bytes"}],"anonymous":false},{"type":"error","name":"InvalidCrossDomainSender","inputs":[]},{"type":"error","name":"MessageDestinationSameChain","inputs":[]},{"type":"error","name":"MessageTargetCrossL2Inbox","inputs":[]},{"type":"error","name":"MessageTargetL2ToL2CrossDomainMessenger","inputs":[]},{"type":"error","name":"MessageTargetSequencedRelayer","inputs":[]},{"type":"error","name":"SequenceDependencyNotRelayed","inputs":[]},{"type":"error","name":"Unauthorized","inputs":[]}],"bytecode":{"object":"0x6080604052348015600f57600080fd5b506107868061001f6000396000f3fe608060405234801561001057600080fd5b50600436106100365760003560e01c806363ca1cc01461003b578063e8e5c91414610060575b600080fd5b61004e610049366004610558565b610075565b60405190815260200160405180910390f35b61007361006e3660046105c2565b61023b565b005b600046860361009757604051638ed9a95d60e01b815260040160405180910390fd5b6021602160991b01196001600160a01b038616016100c857604051635482058960e11b815260040160405180910390fd5b6022602160991b01196001600160a01b038616016100f957604051634faa250960e01b815260040160405180910390fd5b306001600160a01b0386160361012257604051630524cd5560e01b815260040160405180910390fd5b6000306001600160a01b031663e8e5c9148787878760405160240161014a9493929190610647565b60408051601f198184030181529181526020820180516001600160e01b031660e09490941b939093179092529051637056f41f60e01b81529092506023602160991b019150637056f41f906101a7908a9030908690600401610679565b6020604051808303816000875af11580156101c6573d6000803e3d6000fd5b505050506040513d601f19601f820116820180604052508101906101ea91906106dd565b915084866001600160a01b0316887f1468647c73a2081346e639fa0ba7c34bf2ac1924d62247735ace642acd98225d87876040516102299291906106f6565b60405180910390a45095945050505050565b336023602160991b0114610261576040516282b42960e81b815260040160405180910390fd5b306001600160a01b03166023602160991b016001600160a01b03166338ffde186040518163ffffffff1660e01b8152600401602060405180830381865afa1580156102b0573d6000803e3d6000fd5b505050506040513d601f19601f820116820180604052508101906102d4919061070a565b6001600160a01b0316146102fb57604051635e11715560e11b815260040160405180910390fd5b821580159061036e575060405163b1b1b20960e01b8152600481018490526023602160991b019063b1b1b20990602401602060405180830381865afa158015610348573d6000803e3d6000fd5b505050506040513d601f19601f8201168201806040525081019061036c919061072e565b155b1561038c5760405163f282576760e01b815260040160405180910390fd5b60006103d085600085858080601f0160208091040260200160405190810160405280939291908181526020018383808284376000920191909152506104c992505050565b905060006023602160991b016001600160a01b031663247944626040518163ffffffff1660e01b8152600401602060405180830381865afa158015610419573d6000803e3d6000fd5b505050506040513d601f19601f8201168201806040525081019061043d91906106dd565b905081156104855784817fdc5f5e1b22ce69f18fa8644dded182d19fb56b60e5c91cebc8f694b012b5299986866040516104789291906106f6565b60405180910390a36104c1565b84817f21e614c2310bbabf8d3f6b1c913fcf17b67f851f60868932864e42edeb3df0b186866040516104b89291906106f6565b60405180910390a35b505050505050565b60006104d7845a85856104df565b949350505050565b6000806000835160208501868989f195945050505050565b6001600160a01b038116811461050c57600080fd5b50565b60008083601f84011261052157600080fd5b50813567ffffffffffffffff81111561053957600080fd5b60208301915083602082850101111561055157600080fd5b9250929050565b60008060008060006080868803121561057057600080fd5b853594506020860135610582816104f7565b935060408601359250606086013567ffffffffffffffff8111156105a557600080fd5b6105b18882890161050f565b969995985093965092949392505050565b600080600080606085870312156105d857600080fd5b84356105e3816104f7565b935060208501359250604085013567ffffffffffffffff81111561060657600080fd5b6106128782880161050f565b95989497509550505050565b81835281816020850137506000828201602090810191909152601f909101601f19169091010190565b60018060a01b038516815283602082015260606040820152600061066f60608301848661061e565b9695505050505050565b83815260018060a01b0383166020820152606060408201526000825180606084015260005b818110156106bb576020818601810151608086840101520161069e565b506000608082850101526080601f19601f830116840101915050949350505050565b6000602082840312156106ef57600080fd5b5051919050565b6020815260006104d760208301848661061e565b60006020828403121561071c57600080fd5b8151610727816104f7565b9392505050565b60006020828403121561074057600080fd5b8151801515811461072757600080fdfea264697066735822122012913fe8d5e808029226f97333488b80619a9a05a8235414c5ceba3518b3418b64736f6c634300081a0033","linkReferences":{}},"methodIdentifiers":{"relaySequenceEntry(address,bytes32,bytes)":"e8e5c914","sendSequenceEntry(uint256,address,bytes32,bytes)":"63ca1cc0"},"id":6}