{"abi":[{"type":"function","name":"relayERC20","inputs":[{"name":"_token","type":"address","internalType":"address"},{"name":"_from","type":"address","internalType":"address"},{"name":"_to","type":"address","internalType":"address"},{"name":"_amount","type":"uint256","internalType":"uint256"}],"outputs":[],"stateMutability":"nonpayable"},{"type":"function","name":"sendERC20","inputs":[{"name":"_token","type":"address","internalType":"address"},{"name":"_to","type":"address","internalType":"address"},{"name":"_amount","type":"uint256","internalType":"uint256"},{"name":"_chainId","type":"uint256","internalType":"uint256"}],"outputs":[{"name":"msgHash_","type":"bytes32","internalType":"bytes32"}],"stateMutability":"nonpayable"},{"type":"function","name":"version","inputs":[],"outputs":[{"name":"","type":"string","internalType":"string"}],"stateMutability":"view"},{"type":"event","name":"RelayERC20","inputs":[{"name":"token","type":"address","indexed":true,"internalType":"address"},{"name":"from","type":"address","indexed":true,"internalType":"address"},{"name":"to","type":"address","indexed":true,"internalType":"address"},{"name":"amount","type":"uint256","indexed":false,"internalType":"uint256"},{"name":"source","type":"uint256","indexed":false,"internalType":"uint256"}],"anonymous":false},{"type":"event","name":"SendERC20","inputs":[{"name":"token","type":"address","indexed":true,"internalType":"address"},{"name":"from","type":"address","indexed":true,"internalType":"address"},{"name":"to","type":"address","indexed":true,"internalType":"address"},{"name":"amount","type":"uint256","indexed":false,"internalType":"uint256"},{"name":"destination","type":"uint256","indexed":false,"internalType":"uint256"}],"anonymous":false},{"type":"error","name":"InvalidCrossDomainSender","inputs":[]},{"type":"error","name":"Unauthorized","inputs":[]},{"type":"error","name":"ZeroAddress","inputs":[]}],"bytecode":{"object":"0x6080604052348015600f57600080fd5b5061061d8061001f6000396000f3fe608060405234801561001057600080fd5b50600436106100415760003560e01c806354fd4d50146100465780637cfd6dbc14610087578063c1a433d81461009c575b600080fd5b6100716040518060400160405280600c81526020016b312e302e302d626574612e3160a01b81525081565b60405161007e91906104b5565b60405180910390f35b61009a6100953660046104e7565b6100bd565b005b6100af6100aa366004610538565b6102b5565b60405190815260200161007e565b336023602160991b01146100e3576040516282b42960e81b815260040160405180910390fd5b306001600160a01b03166023602160991b016001600160a01b03166338ffde186040518163ffffffff1660e01b8152600401602060405180830381865afa158015610132573d6000803e3d6000fd5b505050506040513d601f19601f82011682018060405250810190610156919061057e565b6001600160a01b03161461017d57604051635e11715560e11b815260040160405180910390fd5b60006023602160991b016001600160a01b031663247944626040518163ffffffff1660e01b8152600401602060405180830381865afa1580156101c4573d6000803e3d6000fd5b505050506040513d601f19601f820116820180604052508101906101e8919061059b565b6040516318bf507760e01b81526001600160a01b03858116600483015260248201859052919250908616906318bf507790604401600060405180830381600087803b15801561023657600080fd5b505af115801561024a573d6000803e3d6000fd5b50505050826001600160a01b0316846001600160a01b0316866001600160a01b03167f434965d7426acf45a548f00783c067e9ad789c8c66444f0a5ad8941d5005be9385856040516102a6929190918252602082015260400190565b60405180910390a45050505050565b60006001600160a01b0384166102de5760405163d92e233d60e01b815260040160405180910390fd5b604051632b8c49e360e01b8152336004820152602481018490526001600160a01b03861690632b8c49e390604401600060405180830381600087803b15801561032657600080fd5b505af115801561033a573d6000803e3d6000fd5b5050604080516001600160a01b0389811660248301523360448301528816606482015260848082018890528251808303909101815260a490910182526020810180516001600160e01b0316631f3f5b6f60e21b1790529051637056f41f60e01b81529092506023602160991b019150637056f41f906103c1908690309086906004016105b4565b6020604051808303816000875af11580156103e0573d6000803e3d6000fd5b505050506040513d601f19601f82011682018060405250810190610404919061059b565b9150846001600160a01b0316336001600160a01b0316876001600160a01b03167f0247bfe63a1aaa59e073e20b172889babfda8d3273b5798e0e9ac4388e6dd11c878760405161045e929190918252602082015260400190565b60405180910390a450949350505050565b6000815180845260005b8181101561049557602081850181015186830182015201610479565b506000602082860101526020601f19601f83011685010191505092915050565b6020815260006104c8602083018461046f565b9392505050565b6001600160a01b03811681146104e457600080fd5b50565b600080600080608085870312156104fd57600080fd5b8435610508816104cf565b93506020850135610518816104cf565b92506040850135610528816104cf565b9396929550929360600135925050565b6000806000806080858703121561054e57600080fd5b8435610559816104cf565b93506020850135610569816104cf565b93969395505050506040820135916060013590565b60006020828403121561059057600080fd5b81516104c8816104cf565b6000602082840312156105ad57600080fd5b5051919050565b8381526001600160a01b03831660208201526060604082018190526000906105de9083018461046f565b9594505050505056fea26469706673582212204629725cad72fce03ed86449620383534ca3b9753273bdc8a23c2d777d15480964736f6c63430008190033","linkReferences":{}},"methodIdentifiers":{"relayERC20(address,address,address,uint256)":"7cfd6dbc","sendERC20(address,address,uint256,uint256)":"c1a433d8","version()":"54fd4d50"},"id":24}