{"abi":[{"type":"function","name":"crossDomainMessenger","inputs":[],"outputs":[{"name":"messenger","type":"address","internalType":"contract IL2ToL2CrossDomainMessenger"}],"stateMutability":"pure"},{"type":"function","name":"relayCrossChainTrx","inputs":[{"name":"_dest","type":"address","internalType":"address"},{"name":"_value","type":"uint256","internalType":"uint256"},{"name":"_calldata","type":"bytes","internalType":"bytes"},{"name":"_prevMsgHashes","type":"bytes32[]","internalType":"bytes32[]"}],"outputs":[],"stateMutability":"nonpayable"},{"type":"function","name":"relayTipRelayer","inputs":[{"name":"_token","type":"address","internalType":"address"},{"name":"_tip","type":"uint256","internalType":"uint256"},{"name":"_prevMsgHashes","type":"bytes32[]","internalType":"bytes32[]"}],"outputs":[],"stateMutability":"nonpayable"},{"type":"function","name":"sendCrossChainTrx","inputs":[{"name":"_chainId","type":"uint256","internalType":"uint256"},{"name":"_dest","type":"address","internalType":"address"},{"name":"_value","type":"uint256","internalType":"uint256"},{"name":"_calldata","type":"bytes","internalType":"bytes"},{"name":"_prevMsgHashes","type":"bytes32[]","internalType":"bytes32[]"}],"outputs":[{"name":"msgHash","type":"bytes32","internalType":"bytes32"}],"stateMutability":"nonpayable"},{"type":"function","name":"sendCrossChainTrxWithTip","inputs":[{"name":"_chainId","type":"uint256","internalType":"uint256"},{"name":"_dest","type":"address","internalType":"address"},{"name":"_value","type":"uint256","internalType":"uint256"},{"name":"_calldata","type":"bytes","internalType":"bytes"},{"name":"_token","type":"address","internalType":"address"},{"name":"_tip","type":"uint256","internalType":"uint256"}],"outputs":[],"stateMutability":"nonpayable"}],"bytecode":{"object":"0x6080604052600080546001600160a01b031916734200000000000000000000000000000000000028179055348015603557600080fd5b50610e54806100456000396000f3fe608060405234801561001057600080fd5b50600436106100575760003560e01c8063372dc2ef1461005c578063617eb87114610082578063ab6a1a3b14610097578063b8ea4d94146100aa578063f43b3613146100bd575b600080fd5b61006f61006a366004610954565b6100d2565b6040519081526020015b60405180910390f35b6100956100903660046109ea565b6101ac565b005b6100956100a5366004610a76565b610387565b6100956100b8366004610ad2565b610588565b6040516023602160991b018152602001610079565b600080306001600160a01b031663617eb8718989898989896040516024016100ff96959493929190610b82565b60408051601f198184030181529181526020820180516001600160e01b031660e09490941b939093179092529051637056f41f60e01b81529092506023602160991b019150637056f41f9061015c908c9030908690600401610c08565b6020604051808303816000875af115801561017b573d6000803e3d6000fd5b505050506040513d601f19601f8201168201806040525081019061019f9190610c51565b9998505050505050505050565b818160005b81811015610273578282828181106101cb576101cb610c6a565b905060200201356000801b148061026257506023602160991b0163b1b1b2098484848181106101fc576101fc610c6a565b905060200201356040518263ffffffff1660e01b815260040161022191815260200190565b602060405180830381865afa15801561023e573d6000803e3d6000fd5b505050506040513d601f19601f820116820180604052508101906102629190610c80565b61026b57600080fd5b6001016101b1565b50306001600160a01b03166023602160991b016001600160a01b03166338ffde186040518163ffffffff1660e01b8152600401602060405180830381865afa1580156102c3573d6000803e3d6000fd5b505050506040513d601f19601f820116820180604052508101906102e79190610ca9565b6001600160a01b0316146103165760405162461bcd60e51b815260040161030d90610cc6565b60405180910390fd5b336023602160991b011461033c5760405162461bcd60e51b815260040161030d90610d0d565b61037d888888888080601f01602080910402602001604051908101604052809392919081815260200183838082843760009201919091525061083792505050565b5050505050505050565b818160005b8181101561044e578282828181106103a6576103a6610c6a565b905060200201356000801b148061043d57506023602160991b0163b1b1b2098484848181106103d7576103d7610c6a565b905060200201356040518263ffffffff1660e01b81526004016103fc91815260200190565b602060405180830381865afa158015610419573d6000803e3d6000fd5b505050506040513d601f19601f8201168201806040525081019061043d9190610c80565b61044657600080fd5b60010161038c565b50306001600160a01b03166023602160991b016001600160a01b03166338ffde186040518163ffffffff1660e01b8152600401602060405180830381865afa15801561049e573d6000803e3d6000fd5b505050506040513d601f19601f820116820180604052508101906104c29190610ca9565b6001600160a01b0316146104e85760405162461bcd60e51b815260040161030d90610cc6565b336023602160991b011461050e5760405162461bcd60e51b815260040161030d90610d0d565b60405163a9059cbb60e01b8152326004820152602481018690526001600160a01b0387169063a9059cbb906044016020604051808303816000875af115801561055b573d6000803e3d6000fd5b505050506040513d601f19601f8201168201806040525081019061057f9190610c80565b50505050505050565b60008054604051631834867b60e31b81526001600160a01b03858116600483015230602483015260448201859052606482018b90529091169063c1a433d8906084016020604051808303816000875af11580156105e9573d6000803e3d6000fd5b505050506040513d601f19601f8201168201806040525081019061060d9190610c51565b6040805160028082526060820183529293506000929091602083019080368337019050509050818160008151811061064757610647610c6a565b602090810291909101015260003063617eb8718a8a8a8a86604051908082528060200260200182016040528015610688578160200160208202803683370190505b5060405160240161069d959493929190610d8c565b60408051601f198184030181529181526020820180516001600160e01b031660e09490941b939093179092529051637056f41f60e01b8152909250600091506023602160991b0190637056f41f906106fd908e9030908790600401610c08565b6020604051808303816000875af115801561071c573d6000803e3d6000fd5b505050506040513d601f19601f820116820180604052508101906107409190610c51565b9050808360018151811061075657610756610c6a565b6020026020010181815250506000306001600160a01b031663ab6a1a3b88888760405160240161078893929190610dd2565b60408051601f198184030181529181526020820180516001600160e01b031660e09490941b939093179092529051637056f41f60e01b81529092506023602160991b019150637056f41f906107e5908f9030908690600401610c08565b6020604051808303816000875af1158015610804573d6000803e3d6000fd5b505050506040513d601f19601f820116820180604052508101906108289190610c51565b50505050505050505050505050565b600080846001600160a01b031684846040516108539190610e02565b60006040518083038185875af1925050503d8060008114610890576040519150601f19603f3d011682016040523d82523d6000602084013e610895565b606091505b5091509150816108a757805160208201fd5b5050505050565b6001600160a01b03811681146108c357600080fd5b50565b60008083601f8401126108d857600080fd5b50813567ffffffffffffffff8111156108f057600080fd5b60208301915083602082850101111561090857600080fd5b9250929050565b60008083601f84011261092157600080fd5b50813567ffffffffffffffff81111561093957600080fd5b6020830191508360208260051b850101111561090857600080fd5b600080600080600080600060a0888a03121561096f57600080fd5b873596506020880135610981816108ae565b955060408801359450606088013567ffffffffffffffff808211156109a557600080fd5b6109b18b838c016108c6565b909650945060808a01359150808211156109ca57600080fd5b506109d78a828b0161090f565b989b979a50959850939692959293505050565b60008060008060008060808789031215610a0357600080fd5b8635610a0e816108ae565b955060208701359450604087013567ffffffffffffffff80821115610a3257600080fd5b610a3e8a838b016108c6565b90965094506060890135915080821115610a5757600080fd5b50610a6489828a0161090f565b979a9699509497509295939492505050565b60008060008060608587031215610a8c57600080fd5b8435610a97816108ae565b935060208501359250604085013567ffffffffffffffff811115610aba57600080fd5b610ac68782880161090f565b95989497509550505050565b600080600080600080600060c0888a031215610aed57600080fd5b873596506020880135610aff816108ae565b955060408801359450606088013567ffffffffffffffff811115610b2257600080fd5b610b2e8a828b016108c6565b9095509350506080880135610b42816108ae565b8092505060a0880135905092959891949750929550565b81835281816020850137506000828201602090810191909152601f909101601f19169091010190565b60018060a01b0387168152856020820152608060408201526000610baa608083018688610b59565b82810360608401528381526001600160fb1b03841115610bc957600080fd5b8360051b808660208401370160200198975050505050505050565b60005b83811015610bff578181015183820152602001610be7565b50506000910152565b83815260018060a01b03831660208201526060604082015260008251806060840152610c3b816080850160208701610be4565b601f01601f191691909101608001949350505050565b600060208284031215610c6357600080fd5b5051919050565b634e487b7160e01b600052603260045260246000fd5b600060208284031215610c9257600080fd5b81518015158114610ca257600080fd5b9392505050565b600060208284031215610cbb57600080fd5b8151610ca2816108ae565b60208082526027908201527f57726f6e67206d65737361676520736f75726365206f6e20746865206f746865604082015266391031b430b4b760c91b606082015260800190565b60208082526023908201527f4e6f742066726f6d204c32546f4c3243726f7373446f6d61696e4d657373656e60408201526233b2b960e91b606082015260800190565b60008151808452602080850194506020840160005b83811015610d8157815187529582019590820190600101610d65565b509495945050505050565b60018060a01b0386168152846020820152608060408201526000610db4608083018587610b59565b8281036060840152610dc68185610d50565b98975050505050505050565b60018060a01b0384168152826020820152606060408201526000610df96060830184610d50565b95945050505050565b60008251610e14818460208701610be4565b919091019291505056fea2646970667358221220ac720eac0c8f92941e87a6b120a1df40dbbd2d716cac458dbdfec3f17680584c64736f6c63430008190033","linkReferences":{}},"methodIdentifiers":{"crossDomainMessenger()":"f43b3613","relayCrossChainTrx(address,uint256,bytes,bytes32[])":"617eb871","relayTipRelayer(address,uint256,bytes32[])":"ab6a1a3b","sendCrossChainTrx(uint256,address,uint256,bytes,bytes32[])":"372dc2ef","sendCrossChainTrxWithTip(uint256,address,uint256,bytes,address,uint256)":"b8ea4d94"},"id":10}