{"abi":[{"type":"function","name":"relayERC20WithTip","inputs":[{"name":"_token","type":"address","internalType":"address"},{"name":"_to","type":"address","internalType":"address"},{"name":"_amount","type":"uint256","internalType":"uint256"},{"name":"_tip","type":"uint256","internalType":"uint256"},{"name":"_prevMsgHashes","type":"bytes32[]","internalType":"bytes32[]"}],"outputs":[],"stateMutability":"nonpayable"},{"type":"function","name":"sendERC20WithTip","inputs":[{"name":"_token","type":"address","internalType":"address"},{"name":"_to","type":"address","internalType":"address"},{"name":"_amount","type":"uint256","internalType":"uint256"},{"name":"_chainId","type":"uint256","internalType":"uint256"},{"name":"_tip","type":"uint256","internalType":"uint256"}],"outputs":[{"name":"msgHash","type":"bytes32","internalType":"bytes32"}],"stateMutability":"nonpayable"}],"bytecode":{"object":"0x6080604052600080546001600160a01b031916734200000000000000000000000000000000000028179055348015603557600080fd5b5061083a806100456000396000f3fe608060405234801561001057600080fd5b50600436106100365760003560e01c8063c60ff9361461003b578063cb025f1a14610050575b600080fd5b61004e610049366004610592565b610075565b005b61006361005e36600461063f565b610379565b60405190815260200160405180910390f35b818160005b8181101561013c5782828281811061009457610094610690565b905060200201356000801b148061012b57506023602160991b0163b1b1b2098484848181106100c5576100c5610690565b905060200201356040518263ffffffff1660e01b81526004016100ea91815260200190565b602060405180830381865afa158015610107573d6000803e3d6000fd5b505050506040513d601f19601f8201168201806040525081019061012b91906106a6565b61013457600080fd5b60010161007a565b50336023602160991b01146101985760405162461bcd60e51b815260206004820152601a60248201527f4e6f742066726f6d2073657175656e6365642072656c6179657200000000000060448201526064015b60405180910390fd5b306001600160a01b03166023602160991b016001600160a01b03166338ffde186040518163ffffffff1660e01b8152600401602060405180830381865afa1580156101e7573d6000803e3d6000fd5b505050506040513d601f19601f8201168201806040525081019061020b91906106cf565b6001600160a01b0316146102715760405162461bcd60e51b815260206004820152602760248201527f57726f6e67206d65737361676520736f75726365206f6e20746865206f746865604482015266391031b430b4b760c91b606482015260840161018f565b876001600160a01b03811663a9059cbb8961028c898b6106ec565b6040516001600160e01b031960e085901b1681526001600160a01b03909216600483015260248201526044016020604051808303816000875af11580156102d7573d6000803e3d6000fd5b505050506040513d601f19601f820116820180604052508101906102fb91906106a6565b5060405163a9059cbb60e01b8152326004820152602481018790526001600160a01b0382169063a9059cbb906044016020604051808303816000875af1158015610349573d6000803e3d6000fd5b505050506040513d601f19601f8201168201806040525081019061036d91906106a6565b50505050505050505050565b60008184116103d65760405162461bcd60e51b8152602060048201526024808201527f546f74616c20616d6f756e74206d75737420626520626967676572207468616e6044820152630207469760e41b606482015260840161018f565b60008054604051631834867b60e31b81526001600160a01b038981166004830152888116602483015260448201889052606482018790529091169063c1a433d8906084016020604051808303816000875af1158015610439573d6000803e3d6000fd5b505050506040513d601f19601f8201168201806040525081019061045d9190610713565b6040805160018082528183019092529192506000919060208083019080368337019050509050818160008151811061049757610497610690565b6020026020010181815250506000306001600160a01b031663c60ff9368a8a8a89876040516024016104cd95949392919061072c565b60408051601f198184030181529181526020820180516001600160e01b031660e09490941b939093179092529051637056f41f60e01b81529092506023602160991b019150637056f41f9061052a9089903090869060040161079e565b6020604051808303816000875af1158015610549573d6000803e3d6000fd5b505050506040513d601f19601f8201168201806040525081019061056d9190610713565b9998505050505050505050565b6001600160a01b038116811461058f57600080fd5b50565b60008060008060008060a087890312156105ab57600080fd5b86356105b68161057a565b955060208701356105c68161057a565b94506040870135935060608701359250608087013567ffffffffffffffff808211156105f157600080fd5b818901915089601f83011261060557600080fd5b81358181111561061457600080fd5b8a60208260051b850101111561062957600080fd5b6020830194508093505050509295509295509295565b600080600080600060a0868803121561065757600080fd5b85356106628161057a565b945060208601356106728161057a565b94979496505050506040830135926060810135926080909101359150565b634e487b7160e01b600052603260045260246000fd5b6000602082840312156106b857600080fd5b815180151581146106c857600080fd5b9392505050565b6000602082840312156106e157600080fd5b81516106c88161057a565b8181038181111561070d57634e487b7160e01b600052601160045260246000fd5b92915050565b60006020828403121561072557600080fd5b5051919050565b6001600160a01b0386811682528516602080830191909152604082018590526060820184905260a06080830181905283519083018190526000918481019160c085019190845b8181101561078e57845184529382019392820192600101610772565b50919a9950505050505050505050565b8381526000602060018060a01b038516602084015260606040840152835180606085015260005b818110156107e1578581018301518582016080015282016107c5565b506000608082860101526080601f19601f8301168501019250505094935050505056fea2646970667358221220a840aaae0c1ee019c78a37f650db2ea596306c2930944bf0227da5824787dd6c64736f6c63430008190033","linkReferences":{}},"methodIdentifiers":{"relayERC20WithTip(address,address,uint256,uint256,bytes32[])":"c60ff936","sendERC20WithTip(address,address,uint256,uint256,uint256)":"cb025f1a"},"id":35}