{"abi":[{"type":"function","name":"relayERC20WithTip","inputs":[{"name":"_token","type":"address","internalType":"address"},{"name":"_to","type":"address","internalType":"address"},{"name":"_amount","type":"uint256","internalType":"uint256"},{"name":"_tip","type":"uint256","internalType":"uint256"},{"name":"_prevMsgHash","type":"bytes32","internalType":"bytes32"}],"outputs":[],"stateMutability":"nonpayable"},{"type":"function","name":"sendERC20WithTip","inputs":[{"name":"_token","type":"address","internalType":"address"},{"name":"_to","type":"address","internalType":"address"},{"name":"_amount","type":"uint256","internalType":"uint256"},{"name":"_chainId","type":"uint256","internalType":"uint256"},{"name":"_tip","type":"uint256","internalType":"uint256"}],"outputs":[{"name":"msgHash","type":"bytes32","internalType":"bytes32"}],"stateMutability":"nonpayable"}],"bytecode":{"object":"0x6080604052600080546001600160a01b031916734200000000000000000000000000000000000028179055348015603557600080fd5b50610673806100456000396000f3fe608060405234801561001057600080fd5b50600436106100365760003560e01c8063472f101c1461003b578063cb025f1a14610050575b600080fd5b61004e610049366004610500565b610075565b005b61006361005e366004610500565b610328565b60405190815260200160405180910390f35b808015806100e5575060405163b1b1b20960e01b8152600481018290526023602160991b019063b1b1b20990602401602060405180830381865afa1580156100c1573d6000803e3d6000fd5b505050506040513d601f19601f820116820180604052508101906100e59190610551565b6100ee57600080fd5b336023602160991b01146101495760405162461bcd60e51b815260206004820152601a60248201527f4e6f742066726f6d2073657175656e6365642072656c6179657200000000000060448201526064015b60405180910390fd5b306001600160a01b03166023602160991b016001600160a01b03166338ffde186040518163ffffffff1660e01b8152600401602060405180830381865afa158015610198573d6000803e3d6000fd5b505050506040513d601f19601f820116820180604052508101906101bc919061057a565b6001600160a01b0316146102225760405162461bcd60e51b815260206004820152602760248201527f57726f6e67206d65737361676520736f75726365206f6e20746865206f746865604482015266391031b430b4b760c91b6064820152608401610140565b856001600160a01b03811663a9059cbb8761023d8789610597565b6040516001600160e01b031960e085901b1681526001600160a01b03909216600483015260248201526044016020604051808303816000875af1158015610288573d6000803e3d6000fd5b505050506040513d601f19601f820116820180604052508101906102ac9190610551565b5060405163a9059cbb60e01b8152326004820152602481018590526001600160a01b0382169063a9059cbb906044016020604051808303816000875af11580156102fa573d6000803e3d6000fd5b505050506040513d601f19601f8201168201806040525081019061031e9190610551565b5050505050505050565b60008184116103855760405162461bcd60e51b8152602060048201526024808201527f546f74616c20616d6f756e74206d75737420626520626967676572207468616e6044820152630207469760e41b6064820152608401610140565b60008054604051631834867b60e31b81526001600160a01b038981166004830152888116602483015260448201889052606482018790529091169063c1a433d8906084016020604051808303816000875af11580156103e8573d6000803e3d6000fd5b505050506040513d601f19601f8201168201806040525081019061040c91906105be565b604080516001600160a01b038a8116602483015289166044820152606481018890526084810186905260a48082018490528251808303909101815260c490910182526020810180516001600160e01b03166311cbc40760e21b1790529051637056f41f60e01b8152919250906023602160991b0190637056f41f90610499908890309086906004016105d7565b6020604051808303816000875af11580156104b8573d6000803e3d6000fd5b505050506040513d601f19601f820116820180604052508101906104dc91906105be565b98975050505050505050565b6001600160a01b03811681146104fd57600080fd5b50565b600080600080600060a0868803121561051857600080fd5b8535610523816104e8565b94506020860135610533816104e8565b94979496505050506040830135926060810135926080909101359150565b60006020828403121561056357600080fd5b8151801515811461057357600080fd5b9392505050565b60006020828403121561058c57600080fd5b8151610573816104e8565b818103818111156105b857634e487b7160e01b600052601160045260246000fd5b92915050565b6000602082840312156105d057600080fd5b5051919050565b8381526000602060018060a01b038516602084015260606040840152835180606085015260005b8181101561061a578581018301518582016080015282016105fe565b506000608082860101526080601f19601f8301168501019250505094935050505056fea2646970667358221220e751327e216f4451d8f92d8caf599fb0d74aa0b26510db1330ab6bfdc950ca5564736f6c63430008190033","linkReferences":{}},"methodIdentifiers":{"relayERC20WithTip(address,address,uint256,uint256,bytes32)":"472f101c","sendERC20WithTip(address,address,uint256,uint256,uint256)":"cb025f1a"},"id":35}